:020000040800F2
:1000000060140020F1010008A1020008A30200080A
:10001000A7020008AB020008AF02000800000000C1
:10002000000000000000000000000000B302000813
:10003000B502000800000000373C0008DD0300089E
:100040000B0200080B0200080B0200080B0200085C
:100050000B0200080B0200080B0200080B0200084C
:100060000B0200080B0200080B0200080B0200083C
:100070000B0200080B0200080B0200080B0200082C
:100080000B0200080B0200080B0200080B0200081C
:100090000B0200080B0200080B0200080B0200080C
:1000A0000B0200080B0200080B0200080B020008FC
:1000B0000B0200080B0200080B0200080B020008EC
:1000C0000B0200080B0200080B0200080B020008DC
:1000D0000B0200081D140008DD1400080B020008C4
:1000E0000B0200080B0200080B02000800000000D1
:1000F0000000000000000000000000000000000000
:1001000000000000000000000B0200080B020008C5
:100110000B0200080B0200080B0200080B0200088B
:100120000B0200080B0200080B0200080B0200087B
:100130000B0200080B0200080B0200080B0200086B
:100140000B0200080B0200080B0200080B0200085B
:1001500000F002F800F03CF80AA090E8000C82449D
:100160008344AAF10107DA4501D100F031F8AFF27A
:10017000090EBAE80F0013F0010F18BFFB1A43F085
:1001800001031847943D0000B43D0000103A24BF1D
:1001900078C878C1FAD8520724BF30C830C144BFEC
:1001A00004680C607047000000230024002500262E
:1001B000103A28BF78C1FBD8520728BF30C148BFCA
:1001C0000B6070471FB503F01AFE1FBD10B510BDC0
:1001D00003F0D5FD1146FFF7F5FF00F043F803F0FB
:1001E000F3FD03B4FFF7F2FF03BC03F0FDFD0000D5
:1001F0000948804709480047FEE7FEE7FEE7FEE7BB
:10020000FEE7FEE7FEE7FEE7FEE7FEE704480549F6
:10021000054A064B7047000087030008510100089B
:10022000600E00206014002060100020601000208C
:1002300070B50446002500BF03F0D6FC0546072331
:10024000124A0021124803F043F80623114A002104
:10025000114803F03DF80A2003F0C4FA284603F0E1
:10026000C7FC70BD10B500F03DF9482000F0BEF8A5
:1002700001F0F5FC0A23094A0021AFF24B0003F01C
:1002800027F801F00DFE012010BD000068020020DB
:100290009D3C000868030020693D000868010020BB
:1002A000704700BFFEE700BFFEE700BFFEE700BFEC
:1002B000FEE770477047000000200021434A1268A3
:1002C00042F48032414B1A6000BF404A126802F487
:1002D0000031401C11B9B0F5A06FF6D13B4A12684D
:1002E00012F4003F01D0012100E00021012943D197
:1002F000374A126842F01002354B1A601A461268EB
:1003000022F003021A601A46126842F002021A60D2
:100310002E4A52682D4B5A601A4652685A601A4645
:10032000526842F480625A601A46526822F47C1283
:100330005A601A46526842F4E8125A601A46126825
:1003400042F080721A6000BF204A126812F0007FEB
:10035000FAD01E4A526822F003021C4B5A601A4619
:10036000526842F002025A6000BF184A526802F016
:100370000C02082AF9D101E000BFFEE7704710B572
:10038000FFF79AFF10BD10B51048006840F001005B
:100390000E490860084640680E4908400B4948600D
:1003A000084600680C49084008490860084600688B
:1003B00020F4802008600846406820F4FE00486071
:1003C00000208860FFF7DBFF10BD00000010024036
:1003D000002002400000FFF8FFFFF6FE10B501F01C
:1003E00054FC01F094FD01F06BFC10BD10B54FF012
:1003F000E022126922F004024FF0E0231A61024663
:10040000C31700EB5373DB10344C2370C31700EB9E
:100410005373D91041F2883251430522A31C1A802C
:100420004FF0E022126942F002024FF0E0231A611D
:100430001A465161126942F001021A6110BD2DE99C
:10044000F04704464FF000084FF0E020D0F8149039
:100450002248007804FB00F500BF01F069FC4FF072
:10046000E020866911E04FF0E0208769B7420CD0A8
:10047000B74202D2F01B804403E0A9EB07003044EE
:1004800080443E46A84500D300E0ECE700BF01F001
:1004900094FCBDE8F08770B5044611480078012847
:1004A00014D10E48801C0088844207DB0B48801C56
:1004B000008894FBF0F5284603F060FA0748801C9A
:1004C000008894FBF0F100FB114084B24FF47A7184
:1004D00004FB01F0FFF7B3FF70BD00000000002037
:1004E0004A00002010B500F05BFA4FF4803000F0B5
:1004F00076FA00F0B3FA0446012C21D14FF4E01152
:10050000000400F0CEFA002000F0E6FAA00200F0AD
:10051000EBFA002000F0F0FAA00300F008FB012045
:1005200000F0CAFA00BF392000F07CFA0028FAD0A7
:10053000022000F0C4FA00BF00F0C9FA0828FBD17D
:100540000121032000F098FB012145F23C0000F05E
:1005500086FB00210B4800F0C8F910BD08B54FF428
:10056000E06000F011F826208DF8000000208DF8E2
:1005700001008DF8020001208DF80300684600F0AC
:1005800008F808BD0002300036490143364A1160C0
:10059000704770B5002100230F22C4784CB3324C51
:1005A000246804F4E064C4F5E0644FEA1421C1F166
:1005B000040322FA01F2447804FA03F1847804EA8D
:1005C000020444EA01014FEA0111284C0678A155C2
:1005D000047804F01F054FF0010404FA05F40578CF
:1005E0004FEA65154FF0E02606EB8505C5F800419A
:1005F00009E0047804F01F040125A5401C4C06788E
:10060000761144F8265070BD1A4A0A4002431A4B2C
:100610001A60704741B1194A126842EA00024FF06D
:10062000E023C3F8102D07E0144A126822EA000202
:100630004FF0E023C3F8102D7047042808D14FF085
:10064000E021096941F004014FF0E022116107E067
:100650004FF0E021096921F004014FF0E02211611F
:10066000704700000000FA050CED00E000E400E037
:1006700080E100E080FFFF1F08ED00E010ED00E0EA
:1006800010B50446C249601A8C422FD009DCC1481B
:10069000201810D0B0F5806F16D0B0F5006F4AD199
:1006A0001BE0B0F5806F2AD0B0F5006F30D0B0F508
:1006B000406F40D135E00121042000F0EAFA00212A
:1006C000042000F0E6FA37E00121082000F0E1FA0A
:1006D0000021082000F0DDFA2EE00121102000F0BA
:1006E000D8FA0021102000F0D4FA25E001212020C2
:1006F00000F0CFFA0021202000F0CBFA1CE001210D
:10070000402000F0C6FA0021402000F0C2FA13E0B9
:100710000121802000F0BDFA0021802000F0B9FA0C
:100720000AE00121080200F0B4FA00214FF48070C1
:1007300000F0AFFA00E000BF00BF10BD10B501210E
:10074000084600F0A6FA0021012000F0A2FA10BD30
:100750002DE9F04100220023002400250026002777
:1007600091F803C00CF00F0291F803C01CF0100FB9
:1007700003D091F802C04CEA0202B1F800C01CF0AC
:10078000FF0F31D0066800242BE04FF0010C0CFA6B
:1007900004F5B1F800C00CEA0503AB4220D1A50076
:1007A0004FF00F0C0CFA05F7BE4302FA05FC4CEAB9
:1007B000060691F803C0BCF1280F06D14FF0010CDA
:1007C0000CFA04FCC0F814C00AE091F803C0BCF1B4
:1007D000480F05D14FF0010C0CFA04FCC0F810C012
:1007E000641C082CD1D30660B1F800C0BCF1FF0F27
:1007F00034DD466800242EE004F1080C4FF00108B7
:1008000008FA0CF5B1F800C00CEA0503AB4221D19F
:10081000A5004FF00F0C0CFA05F7BE4302FA05FCD9
:100820004CEA060691F803C0BCF1280F05D104F18B
:10083000080C08FA0CF8C0F8148091F803C0BCF159
:10084000480F07D104F1080C4FF0010808FA0CF822
:10085000C0F81080641C082CCED34660BDE8F0813F
:100860004FF6FF710180022181700421C170704731
:100870000246002093680B4201D0012000E00020D6
:1008800070470146886880B2704702460020D368EE
:100890000B4201D0012000E0002070470146C868EB
:1008A00080B2704701617047416170470AB10161D0
:1008B00000E041617047C16070474FF480320A43E5
:1008C0008261816182618269826970470022324B54
:1008D0001A684FF680731A4042EA00120A432E4B00
:1008E0001A6070472D49C8617047F0B50022002397
:1008F00000250024284E7568C0F3034482B200F43A
:100900004016B6F5401F08D125F07065224E766876
:1009100026F07066204F7E6012E000F48016B6F577
:10092000801F06D1032606FA04F39D4345F0706547
:1009300006E0460D360102FA06F6B54345F070654D
:1009400021B1460D360102FA06F63543124E7560A6
:10095000F0BD30B500228B071C0F0F2303FA04F201
:100960000D4B08338C1053F8244094438D1043F8FA
:1009700025408C1053F824308C07240F00FA04F41F
:100980002343054C08348D1044F8253030BD000059
:100990000014014000F8FEBF0000014000002042AA
:1009A000D748006840F00100D54908600846406813
:1009B000D4490840D249486008460068D2490840F6
:1009C000CF4908600846006820F480200860084687
:1009D000406820F4FE004860002088607047C849E5
:1009E000096821F48031C64A11601146096821F472
:1009F00080211160B0F5803F03D0B0F5802F0ED17B
:100A000006E0BF49096841F48031BD4A116007E042
:100A1000BB49096841F4A021B94A116000E000BF58
:100A200000BF704710B501460022002300204A1184
:100A3000012A02D1B24C236806E0022A02D1B04C4E
:100A4000236A01E0AE4C636A01F01F020124944066
:100A50001C4201D0012000E0002010BD70B5002430
:100A60000025002600BF3120FFF7DCFF0646641C8E
:100A700016B9B4F5A06FF6D13120FFF7D3FF08B156
:100A8000012500E00025284670BD00219C4A116820
:100A900021F0F80141EAC001116070479B490860EC
:100AA00070470022964B5A6822F47C1240EA0103F8
:100AB0001A43934B5A607047944908667047002167
:100AC0008F4A516821F003010143516070478C48FF
:100AD000406800F00C0070470021894A516821F0FD
:100AE000F0010143516070470021854A516821F4AB
:100AF000E0610143516070470021814A516821F44F
:100B0000605141EAC0015160704729B17C4A527A74
:100B100002437B4B5A7206E0794A527AC343DBB2F6
:100B20001A40774B5A727047794908607047002124
:100B3000734A516821F440410143516070470021DC
:100B4000744A11706E4A82F82010012802D00428DD
:100B500008D103E001216F4A117004E005216D4ABC
:100B6000117000E000BF00BF70476B49086070471C
:100B70006349096A0143624A116270476749086024
:100B8000704730B500210022002300245C4D6D68C1
:100B900005F00C0121B1042905D0082923D105E075
:100BA0005F4D056022E05F4D05601FE0544D6D68AC
:100BB00005F47012022505EB9242514D6D6805F463
:100BC00080331BB9584D554305600BE04C4D6D68A3
:100BD00015F4003F03D0554D5543056002E0514DDB
:100BE0005543056002E04E4D056000BF00BF444D17
:100BF0006D6805F0F00109094D4D6C5C0568E54034
:100C000045603F4D6D6805F4E061090A484D6C5C34
:100C10004568E54085603A4D6D6805F46051C90A44
:100C2000434D6C5C4568E540C560354D6D6805F425
:100C30004041890B3E4D10356C5CC568B5FBF4F541
:100C4000056130BD29B12E4A526902432C4B5A61CD
:100C500004E02B4A52698243294B5A61704729B1FB
:100C6000274A92690243264B9A6104E0244A92691A
:100C70008243234B9A61704729B1214AD2690243CA
:100C80001F4BDA6104E01E4AD26982431C4BDA61D1
:100C9000704729B11A4AD2680243194BDA6004E05E
:100CA000174AD2688243164BDA60704729B1144A5A
:100CB00012690243124B1A6104E0114A126982431D
:100CC0000F4B1A6170471B49086070470F49C86491
:100CD00070470B49C87170470948406A40F08070FE
:100CE00007494862704701460020054A92680A4257
:100CF00001D0012000E00020704701498872704750
:100D0000001002400000FFF8FFFFF6FE0000424224
:100D1000D800424220100240800442423C04424239
:100D200000127A0040787D0100093D0020BCBE0021
:100D3000040000204004424210B50446D749601A1E
:100D40008C422BD006DCD648201813D0B0F5806F2B
:100D500038D119E0B0F5806F2AD0B0F56C4F31D1A1
:100D600001218803FFF795FF00214FF48040FFF732
:100D700090FF28E001214804FFF798FF00214FF47D
:100D80000030FFF793FF1EE001218804FFF78EFF7C
:100D900000214FF48020FFF789FF14E00121C804EF
:100DA000FFF784FF00214FF40020FFF77FFF0AE0E8
:100DB00001210805FFF77AFF00214FF48010FFF7AB
:100DC00075FF00E000BF00BF10BD2DE9F04786B001
:100DD00004460D460026002700BF00BFB246A246CB
:100DE000268A4CF6FF700640E88806432682A689CC
:100DF0004EF6F3100640A8882989084369890843FC
:100E00000643A681A68A4FF6FF400640A8890643FE
:100E1000A68201A8FFF7B5FE5446A248824501D13B
:100E2000049F00E0039F07EBC70000EB0710296851
:100E30008900B0FBF1F86420B8FBF0F0060130093E
:100E4000642101FB1089322101EB09106421B0FB00
:100E5000F1F000F00F000643268106B0BDE8F087F0
:100E60004FF4E131016000218180C18001810C21BA
:100E7000418100218181704710B50022028A4FF222
:100E8000FF031A400B884C8823438C882343CC886B
:100E900023431A43028210BD0021018041808180DA
:100EA000C180704721B1828942F40052828104E0FE
:100EB00082894DF6FF731A4082817047F0B5002495
:100EC0000025002600230346C1F3421401F01F054C
:100ED000012707FA05F6012C01D10C3304E0022C9E
:100EE00001D1103300E014331AB11F6837431F607B
:100EF00002E01F68B7431F60F0BD10B51AB1838AC6
:100F00000B43838204E0838ACC43A4B223408382D0
:100F100010BD028A4FF6F0731A400282028A0A4319
:100F20000282704782894FF2FF731A408281828960
:100F30000A438281704721B1828942F00202828194
:100F400004E082894FF6FD731A4082817047028A5D
:100F50004FF6DF731A400282028A0A430282704708
:100F600021B1028A42F48042028204E0028A4BF6F6
:100F7000FF731A4002827047C1F3080282807047F3
:100F800001468888C0F308007047818941F001015B
:100F900081817047028BD2B20283028B42EA012226
:100FA00002837047028B02F47F420283028B0A4362
:100FB0000283704721B1828A42F02002828204E0DB
:100FC000828A4FF6DF731A408282704721B1828A8B
:100FD00042F01002828204E0828A4FF6EF731A40D8
:100FE0008282704721B1828A42F00802828204E044
:100FF000828A4FF6F7731A4082827047828A4FF6D0
:10100000FB731A408282828A0A438282704721B12E
:10101000828A42F00202828204E0828A4FF6FD73E5
:101020001A40828270470246002013880B4201D08A
:10103000012000E000207047CA430280704770B56D
:1010400002460023002400250020C1F3421501F0D0
:101050001F04012606FA04F4012D02D196893440BA
:1010600006E0022D02D1168A344001E0968A34400F
:101070000B12012606FA03F31688334014B10BB1A4
:10108000012000E0002070BD10B5002200230A12EC
:1010900001249440A3B2DC43048010BD004C004006
:1010A00000BCFFBF0038014010B50446BD48201801
:1010B0000FD0B0F5806F16D0B0F5784F1DD101215B
:1010C0000803FFF7E6FD00214FF48050FFF7E1FD34
:1010D00014E001218803FFF7E9FD00214FF480406F
:1010E000FFF7E4FD0AE00121C803FFF7DFFD00215F
:1010F0004FF40040FFF7DAFD00E000BF00BF10BD75
:1011000010B50022028802F441520B884C88234318
:101110008C882343CC8823430C8923434C89234365
:101120008C892343CC8923431A430280838B4FF25B
:10113000FF74234083830B8A038210BD2DE9F0479F
:1011400086B004460D4600260227B0464FF001093E
:10115000B246A08B4FF240010840A08302202084B9
:10116000A68B2889022801D100BF31E0A88810B9D8
:101170004FF0010901E04FF0020901A8FFF701FD5E
:10118000E888B0F5007F0BD1019800EB80004000AB
:1011900029890902B0FBF1F0401D1FFA80FA0CE02A
:1011A0004FEA491029894843019901EB810149001F
:1011B000B1FBF0F0401D1FFA80FA0A20BAFBF0FAEA
:1011C0000AF00108AAEB0800C0F34F074FEA08280D
:1011D000022F01DBFF2F02DD02274FF0000847EA54
:1011E0000800E98808432084288840F40060698862
:1011F0000843A9880843698908430643A68306B0C3
:10120000BDE8F0870021018041808180C18001819B
:1012100041818181C18107210182704700210180C4
:1012200041808180C180022101810021418170477C
:1012300021B1028842F04002028004E002884FF6A9
:10124000BF731A400280704721B1828B42F48062E2
:10125000828304E0828B4FF6FF331A40828370470B
:1012600070B5002300240B1101259D40ACB21AB1CA
:1012700085882543858004E08588E643B6B23540FD
:10128000858070BD10B51AB183880B43838004E05C
:101290008388CC43A4B22340838010BD81817047F2
:1012A000014688897047A1F57E42FF3A04D0028842
:1012B00042F48072028004E002884FF6FF631A4015
:1012C0000280704721B1828842F00402828004E0EB
:1012D00082884FF6FB731A408280704702884FF273
:1012E000FF731A40028002880A4302807047018817
:1012F00041F480510180704721B1028842F40052CC
:10130000028004E002884DF6FF731A4002807047A5
:1013100002460020012901D0108B00E0908A70471E
:101320000146088A7047B1F5804F04D1028842F423
:101330008042028004E002884BF6FF731A4002806C
:1013400070470246002013890B4201D0012000E0C3
:1013500000207047CA4302817047F0B50246002062
:1013600000230024002501F00F070126BE40B3B280
:101370000C110126A640B4B2968806EA0405168927
:101380001E4202D00DB1012000E00020F0BD10B5DA
:10139000002201F00F040123A3409AB2D34303813A
:1013A00010BD000000C8FFBF00B585B04FF400704D
:1013B000ADF8000018208DF8030003208DF802001E
:1013C00069462548FFF7C4F94FF48060ADF8000086
:1013D00004208DF8030003208DF8020069461E48A2
:1013E000FFF7B6F901A8FFF73BFD4FF41650019047
:1013F0000020ADF80800ADF80A00ADF80C00ADF81B
:1014000010000C20ADF80E0001A91448FFF7DDFC18
:1014100001211248FFF746FD05B000BD10B50F4889
:10142000FFF7AEFD044610BD01460120704710B520
:1014300004460BE014F8011B0848FFF79DFD00BFB0
:1014400080210648FFF7EFFD0028F9D0207800281A
:10145000F0D1012010BD000000080140003801401B
:1014600000B585B00420ADF8000018208DF8030009
:1014700003208DF8020069467748FFF769F90820D4
:10148000ADF8000004208DF8030003208DF8020061
:1014900069467148FFF75CF901A8FFF7E1FC4FF4DA
:1014A000964001900020ADF80800ADF80A00ADF8B4
:1014B0000C00ADF810000C20ADF80E0001A9674833
:1014C000FFF783FC012240F225516448FFF7F6FC48
:1014D00001216248FFF7E6FC05B000BD10B540F2FF
:1014E00025515E48FFF7ABFD58B140F225515B48EE
:1014F000FFF7CAFD5948FFF743FD5949594A127889
:10150000885408215548FFF78EFD012806D108218F
:101510005248FFF791FD5148FFF732FD51480078DE
:1015200038B94F484F490978405C4E49491C08700A
:1015300079E04C480078012809D14948494909789F
:10154000445C24024748401CA0F801406BE0454839
:10155000007802280DD14348401CB0F801004049F2
:10156000404A1278895C08443E49491CA1F80100B0
:1015700059E03C480078032807D1394839490978AF
:10158000405C3849491CC8704DE036480078042852
:1015900007D1334833490978405C3249491C087106
:1015A00041E030480078052807D12D482D490978B9
:1015B000405C2C49491C487135E02A4800780628CF
:1015C00007D1274827490978405C2649C91D08707A
:1015D00029E024480078072807D1214821490978C3
:1015E000405C2049C91D48701DE01E48401C007821
:1015F000512815D01B48401CC078422810D01948EB
:10160000C01D4078052809D2DFE800F00304050674
:10161000070004E003E002E001E000E010BD00BFCD
:101620000020104908700F480078401C0D490870D0
:10163000F4E710B504460BE014F8011B0748FFF768
:101640009BFC00BF80210548FFF7EDFC0028F9D086
:1016500020780028F0D110BD00080140004400406F
:101660006C0300201800002010B5044600BF0221C2
:10167000DD48FFF766FE0028F9D02146DA48FFF77B
:101680000DFE00BF0121D848FFF75BFE0028F9D00E
:10169000D548FFF705FEC0B210BD70B504460D4633
:1016A00000220221D148FFF701F92046FFF7DCFFB5
:1016B00006462846FFF7D8FF01220221CB48FFF754
:1016C000F5F8304670BD70B5044600220221C748C7
:1016D000FFF7ECF82046FFF7C7FFFF20FFF7C4FF36
:1016E000054601220221C148FFF7E0F8284670BDF7
:1016F00000B587B001210520FFF7B1FA01210803E9
:10170000FFF7ADFAE020ADF8180003208DF81A00BD
:1017100018208DF81B0006A9B448FFF719F804201B
:10172000ADF8180003208DF81A0010208DF81B006A
:1017300006A9AE48FFF70CF80220ADF81800032008
:101740008DF81A0010208DF81B0006A9A748FEF797
:10175000FFFF0820ADF8180003208DF81A0048207C
:101760008DF81B0006A9A148FEF7F2FF0122022115
:101770009E48FFF79BF80020ADF804004FF48270FC
:10178000ADF806000020ADF80800ADF80A00ADF88D
:101790000C004FF40070ADF80E001020ADF81000F2
:1017A0000020ADF812000720ADF8140001A98E4802
:1017B000FFF7A6FC01218C48FFF73AFD07B000BDFA
:1017C0002DE9F04104460D461646002202218748C5
:1017D000FFF76CF82046FFF747FF8046002705E03B
:1017E000FF20FFF741FFE855781CC7B2B742F7DB8F
:1017F000012202217D48FFF759F84046BDE8F081FB
:101800002DE9F04104460D46164600220421774892
:10181000FFF74CF8002202217448FFF747F82046F2
:10182000FFF722FF07464FF0000807E015F8010B0D
:10183000FFF71AFF08F1010000F0FF08B045F5DBE3
:10184000012202216948FFF731F83846BDE8F081EE
:101850001FB567A103C9CDE90201052202A9302005
:10186000FFF7CEFF052269461020FFF7A9FF0024ED
:1018700006E01DF80400A52800D003E0601CC4B2F7
:10188000052CF6DB00BF052C02D0002004B010BDF3
:101890000120FBE770B50546002204215348FFF7FD
:1018A00005F804222946A020FFF7AAFF01220421FF
:1018B0004E48FEF7FBFF00BF08214C48FEF7D8FF5B
:1018C0000028F9D10720FFF7FEFE04462146272015
:1018D000FFF7E3FE14F0100F05D0FF21E120FFF722
:1018E000DCFE102070BD14F0200F01D02020F9E79D
:1018F000FF20F7E770B50546012204213B48FEF7BB
:10190000D5FF00BF08213948FEF7B2FF0028F9D102
:101910000720FFF7D8FE044621462720FFF7BDFE2B
:1019200014F0400F0AD0042229466120FFF748FF37
:10193000FF21E220FFF7B1FE002070BD0120FCE78F
:1019400010B5002204212948FEF7B0FF05222A49DC
:101950002A20FFF755FF01212120FFF79EFE0121DC
:101960002220FFF79AFE28212520FFF796FE04216A
:101970003120FFF792FE0F212620FFF78EFE0F2168
:101980002020FFF78AFE012010BD10B5002204219F
:101990001648FEF78BFF052218493020FFF730FF6D
:1019A000052215492A20FFF72BFF01212120FFF7EF
:1019B00074FE01212220FFF770FE1A212420FFF778
:1019C0006CFE28212520FFF768FE0F212620FFF757
:1019D00064FE0E212020FFF760FE0122042103484F
:1019E000FEF764FF012010BD0030014000080140F7
:1019F000A5A5A5A5A5000000113E00080C3E000805
:101A00007CB5002614E06946304601F0A8FE054684
:101A100065B9FA4850F8264044B1012C06D0D4E903
:101A2000020100EB810060640198A064701CC6B2E2
:101A30003F2EE8D97CBD70B5002400BF02E028200D
:101A400001F09CFFEE4800780028F8D0ED480068CF
:101A50006421B0FBF1F0EB4908600846006828B942
:101A60000020E9490870FF2001F0BCFE00BF02F031
:101A7000BBF80446E5480068E54908600020E349F2
:101A80000860204602F0B4F8E1480068DD490968C2
:101A9000B0FBF1F0C0F16400DB49087002F051F8CE
:101AA000FFF7AEFF142001F069FFE0E700B587B053
:101AB000032300228021D748CDE90323CDE901018A
:101AC0004FF6FE7300933E2300F5FE720021AFF245
:101AD000990001F053FC06AACFA13E2001F0BFFD02
:101AE00007B000BD70B5002400BF00BF02F07CF855
:101AF0000446C6480068401CC4490860204602F0FD
:101B000077F802F01DF8F1E700B587B00323002253
:101B10008021C548CDE90323CDE901014FF6FF73CC
:101B200000933F2300F5FE720021AFF2470001F061
:101B300025FC06AABDA13F2001F091FD07B000BD24
:101B400004E0002200F8012B4A1E91B20029F8D1CE
:101B5000704770B5C821B948FFF7F2FF00230FE0C6
:101B6000581C84B203EB8300B44901EB800504EBFD
:101B7000840001EB8006002028706E60581C83B240
:101B8000092BEDD303EB8300AC4901EB800500206A
:101B9000287068600846AA49086070BD70B54FF4A7
:101BA0007C71A848FFF7CCFF4FF480719348FFF792
:101BB000C7FF002313E0581CC4B2C3EBC30000EB03
:101BC0004000A04901EB8005C4EBC40000EB4000DD
:101BD00001EB80066E619CA0E864581CC3B20B2B1D
:101BE000E9D3C3EBC30000EB4000964901EB80054D
:101BF0000020686194A0E86400209449086091483E
:101C00009349086070BD0021924A1170002004E0E1
:101C10000021914A1154411CC8B20828F8D3002170
:101C20008E4A11708E4A11708E4A11608E4A116070
:101C3000704700208D4908608D4908708D490870F3
:101C40008D4908708D4908708D4908606F4908609A
:101C50006F4908606B49086069490870704710B5A2
:101C600001F06AFFFFF7E5FFFFF7CDFFFFF796FFF3
:101C7000FFF76FFF00F058FF01F055FAFFF744FF40
:101C8000FFF714FF01F059FF10BD7C4800780128D0
:101C900008D177480078FF2804D275480078401CA6
:101CA00073490870704777496A4A1278885C6A49B4
:101CB000095C744A515C01EBC001694A11707047BC
:101CC00010B500246D480078012830D101F08CFF58
:101CD00004466748007820B165480078401E644992
:101CE000087063480078F8B962480078E0B9FFF7F7
:101CF000DAFF42485A49097850F8210059490860EA
:101D0000574800785549097888420DD055480068F1
:101D1000806B401C53490968886359480068401C1F
:101D20005749086001F07FFF204601F061FF10BDB8
:101D300010B5002451480078012811D101F054FF5A
:101D400004464B48007840B94A480078FF2804D23E
:101D500048480078401C47490870204601F048FF79
:101D600010BD10B5002401F03FFF04464048007844
:101D7000F8B940480078E0B9FFF795FF1F483849A7
:101D8000097850F821003749086035480078334910
:101D9000097888420DD033480068806B401C314977
:101DA0000968886336480068401C3549086001F0BE
:101DB00033FF204601F01CFF10BD10B500242F4852
:101DC000007801286BD101F00FFF04462948007804
:101DD00080B128480078401E2649087008460078DF
:101DE00048B92348007838B9204601F001FFFFF7D1
:101DF000B8FF54E050E04BE046E0000098080020B7
:101E00003C00002034000020300000204C00002066
:101E1000380000209804002075432F4F532D494966
:101E200020537461740000009806002075432F4F02
:101E3000532D49492049646C65000000800300204F
:101E400028000020980900203F0000005C000020CE
:101E50005400002041000020420000203F000020EC
:101E600040000020580000205000002068000020A2
:101E70003D0000203E0000204B0000204A000020D2
:101E800024000020163E0008204601F0B1FE06E0C6
:101E9000204601F0ADFE02E0204601F0A9FE10BD93
:101EA00010B5FF48007890B9FFF7FDFEFD480078B7
:101EB000FD490870FD48FB49097850F82100FC49AC
:101EC000086008460068FB49086001F094FE10BDF8
:101ED00010B50024022001F051FD01F085FE0446FA
:101EE0000020F5490860204601F082FE142001F030
:101EF00045FD01F079FE0446EF480068EF490860AF
:101F00000120EF490870204601F072FE10BD70B547
:101F1000002601F066FE01F067FE0646E94800680B
:101F2000401CE8490860304601F062FEDC48007859
:101F3000012857D1E448007820B1012804D00228B4
:101F400009D103E001250BE0002509E0012501206E
:101F5000DD49087004E001250020DB49087000BF5E
:101F600000BF05B970BDD948046837E001F03CFEF8
:101F70000646E06A70B3E06A401EE062E06A48BB71
:101F800094F8300010F0370F09D014F8300F00F03B
:101F9000C800207001206070A4F1300402E000202D
:101FA00084F8310094F8300010F0080F12D104F1D9
:101FB0003404A078C649097840EA0100C449087091
:101FC0002078C449085C617840EA010014F83419AB
:101FD000C04A50546469304601F00AFE94F8320059
:101FE0003F28C3D1BEE740F223107047704710B5B9
:101FF00090F8342001F10B039C5C90F83530DB4302
:10200000DBB21C4001F10B039C549B5C33B98B7A0F
:1020100090F83640E443E4B223408B7210BD2DE9C2
:10202000F04F04460D4616461F46A07AAA4911F8FD
:10203000009004F10B0010F8090011F800A00AEB61
:10204000C90000F0FF0B994850F82B800020C8F819
:102050002C00C8F8205098F83000F143C9B208406D
:1020600088F8300088F8317098F8300010F0080FC8
:102070000FD198F8360096490978084394490870BA
:10208000944810F8090098F835100843914901F870
:10209000090021464046FFF7AAFF5846BDE8F08FE9
:1020A00010B5844A1268D061824A126892F83430BE
:1020B00000F10B02D35C7F4A126892F8352013437B
:1020C0007C4A126892F8344000F10B021355827A70
:1020D000784B1B6893F836301A438272754A12683F
:1020E00092F834107B4A525C724B1B6893F835307F
:1020F000DB43DBB21A40774B5A541A46525C52B952
:102100006C4A126892F83620D243D2B2704B1B78D8
:102110001A406F4B1A7010BD00228272002105E038
:10212000002300F10B0253544A1CD1B20829F7D303
:10213000704705E011F8013B00F8013B531E9AB2CD
:10214000002AF7D170470146002002E0491C421CDA
:10215000D0B20A78002AF9D170472DE9FC5F044615
:102160000D4616461F46DDE90D9ADDF83080002049
:10217000019001F039FD01905848D0F800B0BBF152
:10218000000F7ED05549DBF814000860019801F07B
:102190002FFDCBF800508BF8324000208BF8300038
:1021A0008BF83100CBF82C00CBF80490CBF80C80E6
:1021B000CBF80860ABF810A0ABF812708BF83700C2
:1021C000E0108BF8340004F007008BF833009BF824
:1021D0003410012088408BF836009BF83310012022
:1021E00088408BF835000020CBF81C00CBF8240089
:1021F000CBF82000CBF83800CBF84000CBF83C00FF
:10220000CBF84400CBF84800AFF2C430CBF84C0018
:102210000020009009E000210BF15000009A40F8E6
:1022200022100098401CC0B2009000980028F2D004
:10223000584601F0D5FC584601F080FC01F0D4FC72
:1022400001901A4840F824B020480068CBF81400E8
:102250000020CBF818001D48006818B11B48006822
:10226000C0F818B01948C0F800B09BF836001849FB
:1022700009780843164908709BF834001549085C32
:1022800000E034E09BF8351008439BF83410114A05
:10229000505413480078401C11490870019821E0FF
:1022A0004A000020400000203F0000209808002045
:1022B00058000020500000204C0000203400002076
:1022C0003C00002068000020600000205C0000202E
:1022D0004100002042000020163E0008540000206B
:1022E0004B00002001F084FC0020BDE8FC9F019819
:1022F00001F07EFC4220F8E72DE9F05F04460D4630
:1023000016461F464FF0000B2078052804D0012008
:1023100038700020BDE8F09F06F08009B9F1000F89
:1023200004D026F080064FF0010A01E04FF0000AC9
:102330000020387001F058FC83468EB3012E45D042
:10234000022E02D0032E57D114E0208900EA05089E
:10235000A84509D1BAF1010F08D120896FEA080117
:1023600089B20840208101E070203870584601F0A1
:102370003FFC49E0208900EA0508B8F1000F09D0C8
:10238000BAF1010F08D120896FEA080189B208402B
:10239000208101E070203870584601F029FC33E0BC
:1023A000FFE72089C04380B200EA0508A84507D1AD
:1023B000BAF1010F06D1208940EA0800208101E02E
:1023C00070203870584601F013FC1DE02089C0438E
:1023D00080B200EA0508B8F1000F07D0BAF1010F8A
:1023E00006D1208940EA0800208101E07020387081
:1023F000584601F0FDFB07E0584601F0F9FB4FF0AD
:1024000000086F20387000BF00BF404682E72DE90A
:10241000F04104460D460027F848007820B110200E
:1024200028700020BDE8F08101F0DEFB0746F4488B
:10243000066886B100684068F14908600520307080
:10244000348100207060EFA0F060384601F0D0FBCE
:102450000020287004E0384601F0CAFB7220287082
:102460003046DFE730B5436804682BB9C268546072
:102470002CB10025656002E01C6004B163608168D6
:1024800000254D6230BDF0B504460D46A66800201B
:1024900006F1280670603580307A00F0DF00307277
:1024A0004FF000007072307AA6F12806A8B906F144
:1024B0003406B078D449097840EA0100D24908705E
:1024C0003078D249085C717840EA010016F8341976
:1024D000CE4A50544FF0010700E000272046FFF796
:1024E000C1FF3846F0BD2DE9F04704460D461646BB
:1024F0004FF0000AC148007820B10F20307020460C
:10250000BDE8F0872078052803D0012030702046F0
:10251000F6E701F069FB8246606808B1012700E038
:10252000002715B1012D3CD119E08FB9B5A0E060AD
:1025300000202070B2480068606000202081B04810
:102540000460504601F054FB00203070804605E0E6
:10255000504601F04DFB49203070A04628E0D4F8E9
:10256000049005E000214846FFF78DFFD9F8009060
:10257000B9F1000FF6D1A3A0E06000202070A048C0
:1025800000686060002020819D480460504601F092
:102590002FFB012F01D1FFF7E4FB002030708046B4
:1025A00006E0504601F024FB07203070A04600BF33
:1025B00000BF4046A4E72DE9F04104460D4616460B
:1025C00000278E48007820B1112030700020BDE82F
:1025D000F08101F009FB07462078052806D038462F
:1025E00001F006FB012030700020F0E7E068286071
:1025F0002868FFF7A8FD8046384601F0F9FA002068
:1026000030704046E3E72DE9F04104460D4616469A
:1026100000277A48007818B112203070BDE8F081A8
:1026200001F0E2FA07462078052805D0384601F087
:10263000DFFA01203070F1E7E560384601F0D8FAA2
:1026400000203070EAE7F0B5059D714F3F6897F8BC
:10265000307047F02007DFF8B8C1DCF800C08CF814
:1026600030700027DFF8A8C1DCF800C08CF83170AA
:10267000674F3F68FD62664F3F6879620A828B74DC
:10268000634F3F688F6047680F6000274F60C860E6
:10269000466806B1716041605D4F3F6897F834400D
:1026A0005A4F3F5DDFF868C1DCF800C09CF835C0C8
:1026B0006FEA0C0C0CF0FF0C07EA0C07DFF84CC1BA
:1026C0000CF8047067463F5D7FB9514F3F6897F83B
:1026D0003670FF43FFB2DFF830C19CF800C007EA54
:1026E0000C07DFF824C18CF80070F0BD2DE9F04F25
:1026F00089B004460D4616461F46DDF84880002086
:1027000002903E48007830B1022088F80000002096
:1027100009B0BDE8F08F3F48007820B10D2088F85F
:1027200000000020F4E72078052804D0012088F874
:1027300000000020ECE706F080000390039820B131
:1027400006F07F064FF0010B01E04FF0000B01F0A7
:102750004BFA0290002E5FD0012E77D0022E02D0CD
:10276000032E74D124E0208900EA0509A94514D17B
:10277000BBF1010F05D120896FEA090189B2084038
:10278000208123480068A0F82890029801F030FAD0
:10279000002088F800004846BAE733462A4604A9D4
:1027A00020460097FFF74FFF029801F021FA8AE0D8
:1027B000208900EA0509B9F1000F14D0BBF1010F1F
:1027C00005D120896FEA090189B2084020811048AB
:1027D0000068A0F82890029801F00AFA002088F812
:1027E0000000484694E733462A4604A9204600974D
:1027F000FFF729FF029801F0FBF964E03D0000209B
:102800002C0000203F00000041000020420000207A
:10281000500000203E0000202089C04380B200EA22
:102820000509A94514D1BBF1010F03D1208940EA64
:1028300009002081D0480068A0F82890029801F093
:10284000D7F9002088F80000484661E70BE030E047
:1028500033462A4604A920460097FFF7F4FE029863
:1028600001F0C6F92FE02089C04380B200EA0509D3
:10287000B9F1000F12D0BBF1010F03D1208940EA5A
:1028800009002081BC480068A0F82890029801F057
:10289000AFF9002088F80000484639E733462A4659
:1028A00004A920460097FFF7CEFE029801F0A0F998
:1028B00009E0029801F09CF94FF000096F2088F8B8
:1028C0000000484624E700BFFFF74BFA01F08CF9FF
:1028D0000290A948006890F8310038B3A648006813
:1028E00090F831A00020A449096881F8310004A8BB
:1028F000FFF7B8FD0020A049096881F83000029870
:1029000001F076F94FF00009BAF1010F07D0BAF1E2
:10291000020F03D10E2088F8000004E000BF0A2057
:1029200088F8000000BF00BF4846F1E69248006802
:10293000B0F82890BBF1010F1ED176B1012E0DD059
:10294000022E02D0032E0ED100E000BF20896FEAD4
:10295000090189B2084020810DE000BF208940EACA
:102960000900208107E0029801F042F96F2088F801
:1029700000000020CCE600BF029801F039F90020E9
:1029800088F800004846C3E670B5002501F02CF930
:10299000054679480068048D284601F029F920464B
:1029A00070BD2DE9FC5F04460D4616461F4600200B
:1029B00000902078052804D0012038700020BDE860
:1029C000FC9F01F011F9009016B1012E0AD105E02B
:1029D0002089E94389B2084020810AE02089284300
:1029E000208106E0009801F003F971203870002082
:1029F000E5E700BF4FF00009D4F8048065E098F8DF
:102A0000120068B3012841D0022802D0032852D115
:102A100013E02089B8F8101000EA010AB8F8100095
:102A2000504509D151464046FFF72DFD8346BBF185
:102A3000010F01D14FF0010944E02089B8F81010CE
:102A400000EA010ABAF1000F09D051464046FFF7EB
:102A50001AFD8346BBF1010F01D14FF0010931E0AE
:102A60002089C04380B2B8F8101000EA010AB8F813
:102A70001000504509D151464046FFF704FD8346FA
:102A8000BBF1010F01D14FF001091BE02089C043C8
:102A900080B2B8F8101000EA010ABAF1000F09D0AC
:102AA00051464046FFF7EFFC8346BBF1010F01D1D1
:102AB0004FF0010906E0009801F09AF86F20387095
:102AC00000207CE700BFD8F80080B8F1000F96D155
:102AD000009801F08DF8B9F1010F01D1FFF741F92C
:102AE00001F082F8009020890190009801F080F8B0
:102AF00000203870019862E72DE9F04104460D4648
:102B000000272078052804D0012028700020BDE887
:102B1000F08101F069F807462689384601F068F827
:102B2000002028703046F2E72DE9F041502113488B
:102B3000FFF706F800240EE0601C85B20F4800EB9A
:102B4000041600EB0517002030707760AFF24C30B0
:102B5000F060601C84B2042CEED3084800EB04162D
:102B6000002030707060AFF26430F06003480449B8
:102B70000860BDE8F08100005000002048040020FB
:102B80002C0000202DE9F04104460D464FF00008CE
:102B90002078022804D0012028700020BDE8F081B0
:102BA00001F022F880466768F88A78B13969081D13
:102BB00038610E68F88A401EF882B9683869884220
:102BC00001D1786838610020287002E01F20287049
:102BD0000026404601F00CF83046DFE72DE9F041D1
:102BE00004460D464FF00008FA48007810B1002066
:102BF000BDE8F08100F0F8FF8046F74806680068FD
:102C000020B1F54800684068F3490860404600F08C
:102C1000EFFF3EB300F0E8FF8046F0480768C7B119
:102C200000680068ED490860404600F0E1FF7C6004
:102C300004EB8500B860FC603C61BD820020F88236
:102C4000022030700020308177603046FFF764FA50
:102C500008E0E14800687060DF480660404600F028
:102C6000C7FF00263046C3E72DE9F04704460D466E
:102C700016464FF0000A2078022804D00120307058
:102C80002046BDE8F087D348007818B10F20307097
:102C90002046F6E700F0A8FF8246A07A08B1012797
:102CA00000E0002715B1012D48D120E0C7B9D4F8C4
:102CB0000480CA480068C8F80000C848C0F800800E
:102CC00000202070C4480068606000202081C24855
:102CD0000460504600F08CFF00203070814605E013
:102CE000504600F085FF49203070A1462DE005E0F8
:102CF0000023042219462046FFF791F9A07A002804
:102D0000F6D1D4F80480B5480068C8F80000B3488C
:102D1000C0F8008000202070AF480068606000208C
:102D20002081AD480460504600F062FF012F01D1C0
:102D3000FFF717F800203070814606E0504600F09B
:102D400057FF07203070A14600BF00BF484698E7F4
:102D500070B50446002600F047FF064665686868BF
:102D6000E860686828610020E882304600F040FF93
:102D7000002070BD2DE9F04704460D4616464FF081
:102D800000092078022804D0012030700020BDE81E
:102D9000F0879048007818B1022030700020F6E7E4
:102DA0008F48007818B10D2030700020EFE700F058
:102DB0001BFF8146D4F80480B8F81600D8B1D8F8C3
:102DC0001010081DC8F810000F68B8F81600401E53
:102DD000A8F81600D8F80810D8F81000884203D1D7
:102DE000D8F80400C8F81000484600F001FF0020A1
:102DF00030703846CBE77B48006890F8300040F0F0
:102E000004007849096881F8300000207549096894
:102E100081F8310073480068C5622046FFF740F929
:102E2000484600F0E5FEFEF79CFF00F0DDFE81461F
:102E30006C48006890F8310020B101280DD00228BC
:102E40000AD105E067480068076A002030700DE08D
:102E500000270E20307009E000BF2146614800685D
:102E6000FFF7C5F800270A20307000BF00BF002020
:102E70005C49096881F830005A49096881F83100D5
:102E800058490968C861574909680862484600F00E
:102E9000AFFE38467BE72DE9F04104460D46164665
:102EA0004FF000082078022804D001203070002064
:102EB000BDE8F08100F098FE8046A07A20B300279C
:102EC0007DB1012D0CD107E0022304220021204610
:102ED000FFF7A5F8781CC7B2A07A0028F4D109E062
:102EE00000BF0223042200212046FFF798F8781C37
:102EF000C7B200BF00BF404600F07AFEFEF731FFC8
:102F00000E2030703846D3E7404600F071FE0020B6
:102F10003070CDE72DE9F04104460D4600272078BA
:102F2000022802D00120BDE8F08100F05DFE0746D6
:102F3000A07A60B10023042229462046FFF76FF8EB
:102F4000384600F055FEFEF70CFF0020EBE7666800
:102F5000F08AB18A884204DB384600F049FE1E2020
:102F6000E1E7F168081DF0600D60F08A401CF08216
:102F7000D6E90210884201D17068F060384600F04E
:102F800037FE0020CFE72DE9F04104460D4600272B
:102F90002078022802D00120BDE8F08100F024FE54
:102FA0000746A07A60B10023042229462046FFF795
:102FB00036F8384600F01CFEFEF7D3FE0020EBE7A3
:102FC0006668F08AB18A88420EDB384600F010FE4F
:102FD0001E20E1E73D0000202800002064000020C2
:102FE0003E0000205000002071683069884201D105
:102FF000B06830613069001F306130690560F08A67
:10300000401CF082384600F0F3FD0020C4E72DE9B3
:10301000F04104460D4616464FF00008207802287D
:1030200002D00120BDE8F08100F0DEFD8046A07AEC
:10303000E8B116F0010F0AD005E00023042229466A
:103040002046FEF7ECFFA07A0028F6D105E0002329
:10305000042229462046FEF7E2FF404600F0C8FD64
:1030600016F0040F01D1FEF77CFE0020DAE7676856
:10307000F88AB98A884204DB404600F0B9FD1E2078
:10308000D0E716F0020F0BD079683869884201D179
:10309000B86838613869001F38613869056009E02F
:1030A000F968081DF8600D60D7E90210884201D167
:1030B0007868F860F88A401CF882404600F098FD75
:1030C0000020AFE72DE9F04704460D464FF0000A17
:1030D0002078022802D00120BDE8F08700F084FDAE
:1030E0008246A07A287404F10B0805F1080900272C
:1030F00005E018F8010B09F8010B781CC7B2082F7E
:10310000F7D36668F08A18B130690068286001E07A
:1031100000202860F08AA880B08AE880504600F03D
:1031200067FD0020D8E72DE9F04178211048FEF72F
:1031300007FD00240DE0601C85B204EB44000C493F
:1031400001EBC00705EB450001EBC0063E60601CCB
:1031500084B2042CEFD304EB4400054901EBC00713
:1031600000203860084603490860BDE8F08100008F
:10317000880D0020640000202DE9FF5F04460D4605
:103180000020009000F030FD0090F84850F8250035
:1031900030B1009800F02CFD282004B0BDE8F09F6D
:1031A000FF2C03D1F248006890F83240EF4850F805
:1031B000247027B9009800F01BFD2920EDE7012FAE
:1031C00004D1009800F014FD4320E6E74FEAE5083B
:1031D00005F00709012000FA08F000F0FF0A0120BD
:1031E00000FA09F0C0B202900020E04941F8240042
:1031F000084640F8257097F83400039097F8360099
:10320000019097F835B0DB490398085C10EA0B0F82
:1032100023D008460399405C6FEA0B01C9B208400D
:10322000D44A0399505411460398085C38B9D248DF
:1032300000780199C943C9B20840CF490870CE4807
:10324000007840EA0A00CC490870CA4810F8080023
:1032500002990843C74901F80800FE6916B306F150
:103260000B000399415C6FEA0B00C0B2014006F10C
:103270000B00039A81540399405C28B9B07A0199F4
:10328000C943C9B20840B072B07A40EA0A00B072CD
:1032900006F10B0010F808100298014306F10B002C
:1032A00000F8081087F8325087F8348087F8339098
:1032B00087F836A0029887F83500009800F098FC4F
:1032C000AE480078012801D1FEF74BFD002064E7ED
:1032D0002DE9FE4F04460D46164698464FF000096C
:1032E00000F082FC8146A648007828B1484600F0EC
:1032F0007FFC3C20BDE8FE8F9C4850F8280058BB5E
:1033000001209A4941F82800484600F071FC00234A
:1033100032462946204600F015FC824600230093E1
:1033200001931A46514640460293FEF716FF0746A0
:1033300037B99248007801280CD1FEF712FD09E058
:1033400000F052FC81460020884941F82800484698
:1033500000F04EFC3846CDE7484600F049FC2820F6
:10336000C8E712F0010F08D012F0020F05D002E0FA
:10337000491E002308C00029FAD170472DE9F04FFB
:1033800087B004460D4616461F46DDE912ABDDE95F
:1033900010890020049000F027FC04907848007801
:1033A00030B1049800F024FC3C2007B0BDE8F08F59
:1033B0006E4850F82700002832D101206B4941F8AF
:1033C0002700049800F014FC51464846149AFFF771
:1033D000C8FF324629462046149B00F0B3FB0690F6
:1033E000149BCDE900AB029343464A463846069902
:1033F000FEF7B3FE0590059830B9604800780128C3
:103400000CD1FEF7AEFC09E000F0EEFB04900020CA
:10341000564941F82700049800F0EAFB0598C4E7F4
:10342000049800F0E5FB2820BFE72DE9F0410446B1
:1034300000275348007810B14020BDE8F0813F2CB0
:1034400001D13E20F9E700F0CFFB0746FF2C03D166
:103450004748006890F83240444850F8246026B944
:10346000384600F0C5FB4320E7E7012E04D138467B
:1034700000F0BEFB3D20E0E716F8340F3D49085C44
:103480007178C943C9B2084031783A4A505416F8A5
:1034900034091146085C40B996F83600C043C0B202
:1034A00035490978084034490870F06918B1304648
:1034B000F169FEF79CFD756A15B12846FEF7D2FF4B
:1034C0000020F06286F8300086F831002D48007840
:1034D000FF2804D22B480078401C2A49087038463F
:1034E00000F086FBFEF782FD00F07EFB07462548D4
:1034F000007820B123480078401E224908703046E9
:1035000000F01DFB20480078401E1F490870002075
:10351000164941F82400B06930B90020716988610A
:103520001A497069086005E0D6E905014861D6E9E5
:10353000051088611648006870611548066015A07E
:10354000F064384600F054FB0C480078012801D1A3
:10355000FEF707FC002070E72DE9F0410446002744
:103560003F2C19D13E20BDE8F081000098080020D2
:103570005000002042000020410000204A000020AE
:103580003D0000203E0000204B0000205C00002099
:10359000540000203F000000FF2C0CD100F024FB61
:1035A0000746F048006890F83750384600F020FB96
:1035B0002846BDE8F08100F017FB0746EA4850F8BE
:1035C000246026B9384600F013FB4320F1E7012EB2
:1035D00004D1384600F00CFB3D20EAE73F2086F896
:1035E0003700384600F004FB0020E2E72DE9F04701
:1035F00004460D4616464FF00008DC48007820B11E
:10360000112030700020BDE8F08700F0EDFA804610
:10361000FF2C03D1D348006890F83240D24850F8CC
:10362000247037B9404600F0E3FA432030700020A0
:10363000E9E7012F06D1404600F0DAFA4320307066
:103640000020E0E7F86C28602868FEF77CFD8146E2
:10365000404600F0CDFA002030704846D3E72DE90F
:10366000F04104460D4616464FF00008BF4800786A
:1036700018B112203070BDE8F08100F0B5FA804634
:10368000FF2C03D1B748006890F83240B64850F894
:1036900024702FB9404600F0ABFA43203070EAE7BF
:1036A000012F05D1404600F0A3FA43203070E2E735
:1036B000FD64404600F09CFA00203070DBE770B5F6
:1036C0000446002600F090FA0646A74850F8245019
:1036D00025B9304600F08CFA462070BD012D04D18A
:1036E000304600F085FA4320F7E795F8300010F0F7
:1036F000080F2FD015F8300F00F0F700287015F8DC
:10370000300910BBE86AE0B905F13405A87898499A
:10371000097840EA01009649087028789549085CC4
:10372000697840EA010015F83419924A505430463D
:1037300000F05EFA90480078012809D1FEF711FBED
:1037400006E0304600F054FA02E0304600F050FA4D
:103750000020C2E7304600F04BFA4420BDE72DE9D7
:10376000F04704460D464FF0000A002028606860CC
:1037700000F03AFA8246FF2C03D17A48006890F8AC
:103780003240794850F824602EB9504600F030FAA3
:103790004320BDE8F087012E04D1504600F028FAFE
:1037A0004320F6E7308A10F0010F04D1504600F0B4
:1037B0001FFA4520EDE74FF00008D6F80C90B768E7
:1037C000504600F015FA01E008F1010802CF002987
:1037D000FAD04FEA88002860A9EB080080006860F2
:1037E0000020D6E72DE9F04104464FF0000800F034
:1037F000FBF98046FF2C05D15A48006890F832400A
:10380000012508E05748006890F83200A04201D135
:10381000012500E00025544850F824702FB9404697
:1038200000F0E6F94820BDE8F081012F04D14046C0
:1038300000F0DEF94320F6E797F834604D48805DEC
:1038400097F83510C943C9B208404A498855084617
:10385000805D40B997F83600C043C0B2444909784A
:1038600008404349087097F8300040F0080087F896
:103870003000404600F0BCF9012D01D1FEF771FA8D
:103880000020D0E72DE9F04104460D46002700F066
:10389000ABF90746FF2C03D13248006890F832405C
:1038A000314850F824602EB9384600F0A1F929209B
:1038B000BDE8F081012E04D1384600F099F943208B
:1038C000F6E7542231462846FEF733FC384600F02E
:1038D0008FF90020ECE72DE9F04704460D46164627
:1038E000002700F081F90746FF2C03D11D48D0F8CE
:1038F000008002E01C4850F8248008F1500050F885
:103900002590384600F074F9002030704846BDE834
:10391000F0872DE9F04704460D46164698464FF0CD
:10392000000900F061F98146FF2C02D10D480768BB
:1039300002E00D4850F8247007F1500040F825606F
:10394000484600F055F9002088F80000BDE8F087EF
:1039500010B50448006800F045F9FF20FFF765FD49
:1039600010BD000050000020980800203D000020FD
:1039700041000020420000204A00002070B50446AB
:1039800000266648007800B170BD6548007800B137
:10399000FAE73CB300F028F906466248006890F860
:1039A00034506148405D5F49096891F83510C9435A
:1039B000C9B208405C4948550846405D50B959486D
:1039C000006890F83600C043C0B2584909780840F2
:1039D0005649087053480068C462304600F008F940
:1039E000FEF7BFF9D0E72DE9F04104460D46164633
:1039F0001F464A48007810B15520BDE8F08148487C
:103A0000007808B13220F8E7B81CC82148434FF4C9
:103A10007A71B0FBF1F14FF461606043C5EB0512C0
:103A200000EB8200304400EBC00202EB001001EB1F
:103A3000C0084046FFF7A2FF0020DEE770B504464D
:103A400000263F2C01D32A2070BD00F0CDF8064699
:103A5000374850F8245025B9304600F0C9F84320C3
:103A6000F2E7012D04D1304600F0C2F84320EBE725
:103A7000E86A20B9304600F0BBF85020E4E70020A7
:103A8000E86295F8300010F0370F09D015F8300FC4
:103A900020F03700287001206870A5F1300502E0A1
:103AA000002085F8310095F8300010F0080F18D18B
:103AB00005F13405A8781D49097840EA01001B4941
:103AC000087028781849085C697840EA010015F800
:103AD0003419154A5054304600F08AF8FEF741F97F
:103AE00002E0304600F084F80020ADE770B5002514
:103AF00000F07AF805460F480468284600F078F888
:103B0000204670BD70B50446002500F06DF80546EE
:103B100008480460284600F06BF870BD3D000020A6
:103B20003E00002050000020420000204100002004
:103B30009808002068000020704770477047704761
:103B40007047704770B5044610464FF080750560A9
:103B5000051F28462C606FF00105061F30463560B2
:103B60004FF01235061F304635604FF00335061F03
:103B7000304635604FF00235061F304635606D1017
:103B8000061F30463560051F284629604FF0113565
:103B9000061F304635604FF01035061F3046356041
:103BA0004FF00935061F304635604FF00835061FC7
:103BB000304635604FF00735061F304635604FF010
:103BC0000635061F304635604FF00535061F304676
:103BD00035604FF00435061F3046356070BD7047C4
:103BE0007047704770470000EFF3108072B670475F
:103BF00080F310887047204C204D25604FF0000462
:103C000084F309881E4C4FF0010525701D4C4FF0C0
:103C10008055256062B6FEE730B41A4C4FF08055EF
:103C2000256030BC704730B4164C4FF0805525608D
:103C300030BC704700BF72B6EFF3098028B120385E
:103C400080E8F00F10490968086000B50F48804708
:103C50005DF804EB0E480F490A7802700A480E49D5
:103C60000A680260106890E8F00F203080F309883D
:103C70004EF0040E62B6704720ED00E00000FFFF3A
:103C80004A00002004ED00E050000020DF3B000867
:103C90003F00002040000020580000207FB506466D
:103CA0000025002406E004F13000C0B20DF8040045
:103CB000601CC4B2042CF6DB00208DF80C008DF8DB
:103CC0000400FDF771FBFDF713FD0FA0FDF7AFFB3F
:103CD0000EE0FDF7BDFD05461DB111A0FDF7A7FBE8
:103CE00002E013A0FDF7A3FB4FF47A70FCF7D3FBBF
:103CF000002DEED013A0FDF79AFBFDF746FE0A203B
:103D0000FCF7C9FB7FBD00007468697320697320EC
:103D1000322E34472074657374200D0A00000000B1
:103D2000636F6E6E656374206F6B200D0A00000078
:103D3000636F6E6E656374206661696C6564200DE7
:103D40000A000000736C61766520706172742063F4
:103D500068616E676520746F2073656E64206D6F97
:103D600064650D0A0000000010B504E04FF4FA701D
:103D7000FCF791FB00BFF9E7704770477047754645
:103D800000F028F8AE4605006946534620F00700CB
:103D9000854618B020B5FCF739FABDE820404FF051
:103DA00000064FF000074FF000084FF0000B21F025
:103DB0000701AC46ACE8C009ACE8C009ACE8C009F2
:103DC000ACE8C0098D4670470446AFF3008020463A
:103DD000FCF707FA00487047000E002001487047C2
:103DE00070470000040E002003494FF01800ABBEDE
:103DF000704700000900000026000200704710B55F
:103E0000FFF7ECFF4FF00001016010BD34431010CC
:103E10000134431010010000010002000100030002
:103E20000100020001000400010002000100030083
:103E30000100020001000500010002000100030072
:103E40000100020001000400010002000100030063
:103E50000100020001000600010002000100030051
:103E60000100020001000400010002000100030043
:103E70000100020001000500010002000100030032
:103E80000100020001000400010002000100030023
:103E90000100020001000700010002000100030010
:103EA0000100020001000400010002000100030003
:103EB00001000200010005000100020001000300F2
:103EC00001000200010004000100020001000300E3
:103ED00001000200010006000100020001000300D1
:103EE00001000200010004000100020001000300C3
:103EF00001000200010005000100020001000300B2
:103F000001000200010004000100020001000300A2
:103F10000100020001000000383F000800000020FE
:103F20006C0000008C010008A43F00086C00002019
:103F3000F4130000A80100080000000000000000C9
:103F4000010203040102030406070809020406082B
:103F50000000000000000000000000000000000061
:103F60000000000000000000000000000000000051
:103F70000000000000000000000000000000000041
:103F80000000000000000000000000000000000031
:103F90000000000000000000000000000000000021
:043FA000000000001D
:04000005080001519D
:00000001FF
